{"contracts/ConcertTickets.sol":{"ConcertTickets":{"abi":[{"inputs":[{"internalType":"string","name":"_concertName","type":"string"},{"internalType":"uint256","name":"_totalTickets","type":"uint256"},{"internalType":"uint256","name":"_ticketPriceWei","type":"uint256"}],"stateMutability":"nonpayable","type":"constructor"},{"inputs":[{"internalType":"address","name":"owner","type":"address"}],"name":"OwnableInvalidOwner","type":"error"},{"inputs":[{"internalType":"address","name":"account","type":"address"}],"name":"OwnableUnauthorizedAccount","type":"error"},{"anonymous":false,"inputs":[{"indexed":true,"internalType":"address","name":"owner","type":"address"},{"indexed":false,"internalType":"uint256","name":"amount","type":"uint256"}],"name":"FundsWithdrawn","type":"event"},{"anonymous":false,"inputs":[{"indexed":true,"internalType":"address","name":"previousOwner","type":"address"},{"indexed":true,"internalType":"address","name":"newOwner","type":"address"}],"name":"OwnershipTransferred","type":"event"},{"anonymous":false,"inputs":[{"indexed":false,"internalType":"bool","name":"active","type":"bool"}],"name":"SaleStateChanged","type":"event"},{"anonymous":false,"inputs":[{"indexed":true,"internalType":"address","name":"buyer","type":"address"},{"indexed":false,"internalType":"uint256","name":"amount","type":"uint256"}],"name":"TicketsPurchased","type":"event"},{"anonymous":false,"inputs":[{"indexed":true,"internalType":"address","name":"from","type":"address"},{"indexed":true,"internalType":"address","name":"to","type":"address"},{"indexed":false,"internalType":"uint256","name":"amount","type":"uint256"},{"indexed":false,"internalType":"uint256","name":"price","type":"uint256"}],"name":"TicketsResold","type":"event"},{"inputs":[{"internalType":"uint256","name":"_amount","type":"uint256"}],"name":"buyTicket","outputs":[],"stateMutability":"payable","type":"function"},{"inputs":[],"name":"concertName","outputs":[{"internalType":"string","name":"","type":"string"}],"stateMutability":"view","type":"function"},{"inputs":[{"internalType":"address","name":"_user","type":"address"}],"name":"getMyTickets","outputs":[{"internalType":"uint256","name":"","type":"uint256"}],"stateMutability":"view","type":"function"},{"inputs":[],"name":"getRemainingTickets","outputs":[{"internalType":"uint256","name":"","type":"uint256"}],"stateMutability":"view","type":"function"},{"inputs":[],"name":"owner","outputs":[{"internalType":"address","name":"","type":"address"}],"stateMutability":"view","type":"function"},{"inputs":[],"name":"renounceOwnership","outputs":[],"stateMutability":"nonpayable","type":"function"},{"inputs":[{"internalType":"address","name":"_to","type":"address"},{"internalType":"uint256","name":"_amount","type":"uint256"}],"name":"resellTicket","outputs":[],"stateMutability":"payable","type":"function"},{"inputs":[],"name":"saleActive","outputs":[{"internalType":"bool","name":"","type":"bool"}],"stateMutability":"view","type":"function"},{"inputs":[],"name":"startSale","outputs":[],"stateMutability":"nonpayable","type":"function"},{"inputs":[],"name":"stopSale","outputs":[],"stateMutability":"nonpayable","type":"function"},{"inputs":[],"name":"ticketPrice","outputs":[{"internalType":"uint256","name":"","type":"uint256"}],"stateMutability":"view","type":"function"},{"inputs":[],"name":"ticketsSold","outputs":[{"internalType":"uint256","name":"","type":"uint256"}],"stateMutability":"view","type":"function"},{"inputs":[],"name":"totalTickets","outputs":[{"internalType":"uint256","name":"","type":"uint256"}],"stateMutability":"view","type":"function"},{"inputs":[{"internalType":"address","name":"newOwner","type":"address"}],"name":"transferOwnership","outputs":[],"stateMutability":"nonpayable","type":"function"},{"inputs":[],"name":"withdrawFunds","outputs":[],"stateMutability":"nonpayable","type":"function"}],"evm":{"bytecode":{"linkReferences":{},"object":"60806040523480156200001157600080fd5b5060405162000fc438038062000fc4833981016040819052620000349162000108565b33806200005b57604051631e4fbdf760e01b81526000600482015260240160405180910390fd5b6200006681620000a2565b5060016200007584826200027e565b5060028290556003556004805460ff1916600117905533600090815260056020526040902055506200034a565b600080546001600160a01b038381166001600160a01b0319831681178455604051919092169283917f8be0079c531659141344cd1fd0a4f28419497f9722a3daafe3b4186f6b6457e09190a35050565b634e487b7160e01b600052604160045260246000fd5b6000806000606084860312156200011e57600080fd5b83516001600160401b03808211156200013657600080fd5b818601915086601f8301126200014b57600080fd5b815181811115620001605762000160620000f2565b604051601f8201601f19908116603f011681019083821181831017156200018b576200018b620000f2565b81604052828152602093508984848701011115620001a857600080fd5b600091505b82821015620001cc5784820184015181830185015290830190620001ad565b600092810184019290925250908601516040909601519097959650949350505050565b600181811c908216806200020457607f821691505b6020821081036200022557634e487b7160e01b600052602260045260246000fd5b50919050565b601f8211156200027957600081815260208120601f850160051c81016020861015620002545750805b601f850160051c820191505b81811015620002755782815560010162000260565b5050505b505050565b81516001600160401b038111156200029a576200029a620000f2565b620002b281620002ab8454620001ef565b846200022b565b602080601f831160018114620002ea5760008415620002d15750858301515b600019600386901b1c1916600185901b17855562000275565b600085815260208120601f198616915b828110156200031b57888601518255948401946001909101908401620002fa565b50858210156200033a5787850151600019600388901b60f8161c191681555b5050505050600190811b01905550565b610c6a806200035a6000396000f3fe6080604052600436106100e85760003560e01c8063715018a61161008a578063b66a0e5d11610059578063b66a0e5d1461023d578063dd11247e14610252578063e36b0b3714610268578063f2fde38b1461027d57600080fd5b8063715018a6146101b45780638aaf2686146101c95780638da5cb5b146101ff5780638f15024f1461022757600080fd5b806354ec92d8116100c657806354ec92d81461014057806367dd74ca1461016257806368428a1b1461017557806370cc89ad1461019f57600080fd5b80631209b1f6146100ed57806321b9656e1461011657806324600fc31461012b575b600080fd5b3480156100f957600080fd5b5061010360035481565b6040519081526020015b60405180910390f35b610129610124366004610aee565b61029d565b005b34801561013757600080fd5b50610129610561565b34801561014c57600080fd5b5061015561068e565b60405161010d9190610b18565b610129610170366004610b66565b61071c565b34801561018157600080fd5b5060045461018f9060ff1681565b604051901515815260200161010d565b3480156101ab57600080fd5b50610103610934565b3480156101c057600080fd5b50610129610972565b3480156101d557600080fd5b506101036101e4366004610b7f565b6001600160a01b031660009081526005602052604090205490565b34801561020b57600080fd5b506000546040516001600160a01b03909116815260200161010d565b34801561023357600080fd5b5061010360065481565b34801561024957600080fd5b50610129610986565b34801561025e57600080fd5b5061010360025481565b34801561027457600080fd5b506101296109d4565b34801561028957600080fd5b50610129610298366004610b7f565b610a17565b60045460ff166102e95760405162461bcd60e51b81526020600482015260126024820152715370727a6564617a2077796c61637a6f6e6160701b60448201526064015b60405180910390fd5b6001600160a01b03821661033f5760405162461bcd60e51b815260206004820152601a60248201527f4e6965706f707261776e79206164726573206f6462696f72637900000000000060448201526064016102e0565b6000811161037e5760405162461bcd60e51b815260206004820152600c60248201526b5a65726f2062696c65746f7760a01b60448201526064016102e0565b60008160035461038e9190610bb7565b90508034146103df5760405162461bcd60e51b815260206004820152601860248201527f5a6c65204554482070727a79206f647370727a6564617a79000000000000000060448201526064016102e0565b336000908152600560205260409020548211156104365760405162461bcd60e51b81526020600482015260156024820152744e6965206d61737a2074796c752062696c65746f7760581b60448201526064016102e0565b3360009081526005602052604081208054849290610455908490610bd4565b90915550506001600160a01b03831660009081526005602052604081208054849290610482908490610be7565b9091555050604051600090339034908381818185875af1925050503d80600081146104c9576040519150601f19603f3d011682016040523d82523d6000602084013e6104ce565b606091505b50509050806105165760405162461bcd60e51b815260206004820152601460248201527350727a656c657720455448206e69657564616e7960601b60448201526064016102e0565b604080518481523460208201526001600160a01b0386169133917fb84ace5a3c03dc5dd347bb472b28268ee65aa672083e3f1db35d8a6842db16f1910160405180910390a350505050565b610569610a55565b47806105a65760405162461bcd60e51b815260206004820152600c60248201526b4272616b2073726f646b6f7760a01b60448201526064016102e0565b600080546040516001600160a01b039091169083908381818185875af1925050503d80600081146105f3576040519150601f19603f3d011682016040523d82523d6000602084013e6105f8565b606091505b505090508061063c5760405162461bcd60e51b815260206004820152601060248201526f50727a656c6577206e69657564616e7960801b60448201526064016102e0565b6000546001600160a01b03166001600160a01b03167feaff4b37086828766ad3268786972c0cd24259d4c87a80f9d3963a3c3d999b0d8360405161068291815260200190565b60405180910390a25050565b6001805461069b90610bfa565b80601f01602080910402602001604051908101604052809291908181526020018280546106c790610bfa565b80156107145780601f106106e957610100808354040283529160200191610714565b820191906000526020600020905b8154815290600101906020018083116106f757829003601f168201915b505050505081565b60045460ff166107635760405162461bcd60e51b81526020600482015260126024820152715370727a6564617a2077796c61637a6f6e6160701b60448201526064016102e0565b600081116107a25760405162461bcd60e51b815260206004820152600c60248201526b5a65726f2062696c65746f7760a01b60448201526064016102e0565b6000816003546107b29190610bb7565b90508034146107f55760405162461bcd60e51b815260206004820152600f60248201526e0b4d8c240eec2e4e8dee6c6408aa89608b1b60448201526064016102e0565b60006005600061080d6000546001600160a01b031690565b6001600160a01b03166001600160a01b03168152602001908152602001600020549050828110156108725760405162461bcd60e51b815260206004820152600f60248201526e5a61206d616c6f2062696c65746f7760881b60448201526064016102e0565b82600560006108896000546001600160a01b031690565b6001600160a01b03166001600160a01b0316815260200190815260200160002060008282546108b89190610bd4565b909155505033600090815260056020526040812080548592906108dc908490610be7565b9250508190555082600660008282546108f59190610be7565b909155505060405183815233907fe11731cb4f1eb3ec3dd09bdc96809bb07365f4c881cda3192b397a4bc0b6da409060200160405180910390a2505050565b60006005600061094c6000546001600160a01b031690565b6001600160a01b03166001600160a01b0316815260200190815260200160002054905090565b61097a610a55565b6109846000610a82565b565b61098e610a55565b6004805460ff191660019081179091556040519081527fe333f8a36ee86e754548af2d6f50c73ff0d501e22e6c784662123dbbe493c602906020015b60405180910390a1565b6109dc610a55565b6004805460ff19169055604051600081527fe333f8a36ee86e754548af2d6f50c73ff0d501e22e6c784662123dbbe493c602906020016109ca565b610a1f610a55565b6001600160a01b038116610a4957604051631e4fbdf760e01b8152600060048201526024016102e0565b610a5281610a82565b50565b6000546001600160a01b031633146109845760405163118cdaa760e01b81523360048201526024016102e0565b600080546001600160a01b038381166001600160a01b0319831681178455604051919092169283917f8be0079c531659141344cd1fd0a4f28419497f9722a3daafe3b4186f6b6457e09190a35050565b80356001600160a01b0381168114610ae957600080fd5b919050565b60008060408385031215610b0157600080fd5b610b0a83610ad2565b946020939093013593505050565b600060208083528351808285015260005b81811015610b4557858101830151858201604001528201610b29565b506000604082860101526040601f19601f8301168501019250505092915050565b600060208284031215610b7857600080fd5b5035919050565b600060208284031215610b9157600080fd5b610b9a82610ad2565b9392505050565b634e487b7160e01b600052601160045260246000fd5b8082028115828204841417610bce57610bce610ba1565b92915050565b81810381811115610bce57610bce610ba1565b80820180821115610bce57610bce610ba1565b600181811c90821680610c0e57607f821691505b602082108103610c2e57634e487b7160e01b600052602260045260246000fd5b5091905056fea2646970667358221220a26c81da3ecf34a2c5bd0c8ef93b5531304d3c40feb151283e255e9aeb8d3d8764736f6c63430008140033","opcodes":"PUSH1 0x80 PUSH1 0x40 MSTORE CALLVALUE DUP1 ISZERO PUSH3 0x11 JUMPI PUSH1 0x0 DUP1 REVERT JUMPDEST POP PUSH1 0x40 MLOAD PUSH3 0xFC4 CODESIZE SUB DUP1 PUSH3 0xFC4 DUP4 CODECOPY DUP2 ADD PUSH1 0x40 DUP2 SWAP1 MSTORE PUSH3 0x34 SWAP2 PUSH3 0x108 JUMP JUMPDEST CALLER DUP1 PUSH3 0x5B JUMPI PUSH1 0x40 MLOAD PUSH4 0x1E4FBDF7 PUSH1 0xE0 SHL DUP2 MSTORE PUSH1 0x0 PUSH1 0x4 DUP3 ADD MSTORE PUSH1 0x24 ADD PUSH1 0x40 MLOAD DUP1 SWAP2 SUB SWAP1 REVERT JUMPDEST PUSH3 0x66 DUP2 PUSH3 0xA2 JUMP JUMPDEST POP PUSH1 0x1 PUSH3 0x75 DUP5 DUP3 PUSH3 0x27E JUMP JUMPDEST POP PUSH1 0x2 DUP3 SWAP1 SSTORE PUSH1 0x3 SSTORE PUSH1 0x4 DUP1 SLOAD PUSH1 0xFF NOT AND PUSH1 0x1 OR SWAP1 SSTORE CALLER PUSH1 0x0 SWAP1 DUP2 MSTORE PUSH1 0x5 PUSH1 0x20 MSTORE PUSH1 0x40 SWAP1 KECCAK256 SSTORE POP PUSH3 0x34A JUMP JUMPDEST PUSH1 0x0 DUP1 SLOAD PUSH1 0x1 PUSH1 0x1 PUSH1 0xA0 SHL SUB DUP4 DUP2 AND PUSH1 0x1 PUSH1 0x1 PUSH1 0xA0 SHL SUB NOT DUP4 AND DUP2 OR DUP5 SSTORE PUSH1 0x40 MLOAD SWAP2 SWAP1 SWAP3 AND SWAP3 DUP4 SWAP2 PUSH32 0x8BE0079C531659141344CD1FD0A4F28419497F9722A3DAAFE3B4186F6B6457E0 SWAP2 SWAP1 LOG3 POP POP JUMP JUMPDEST PUSH4 0x4E487B71 PUSH1 0xE0 SHL PUSH1 0x0 MSTORE PUSH1 0x41 PUSH1 0x4 MSTORE PUSH1 0x24 PUSH1 0x0 REVERT JUMPDEST PUSH1 0x0 DUP1 PUSH1 0x0 PUSH1 0x60 DUP5 DUP7 SUB SLT ISZERO PUSH3 0x11E JUMPI PUSH1 0x0 DUP1 REVERT JUMPDEST DUP4 MLOAD PUSH1 0x1 PUSH1 0x1 PUSH1 0x40 SHL SUB DUP1 DUP3 GT ISZERO PUSH3 0x136 JUMPI PUSH1 0x0 DUP1 REVERT JUMPDEST DUP2 DUP7 ADD SWAP2 POP DUP7 PUSH1 0x1F DUP4 ADD SLT PUSH3 0x14B JUMPI PUSH1 0x0 DUP1 REVERT JUMPDEST DUP2 MLOAD DUP2 DUP2 GT ISZERO PUSH3 0x160 JUMPI PUSH3 0x160 PUSH3 0xF2 JUMP JUMPDEST PUSH1 0x40 MLOAD PUSH1 0x1F DUP3 ADD PUSH1 0x1F NOT SWAP1 DUP2 AND PUSH1 0x3F ADD AND DUP2 ADD SWAP1 DUP4 DUP3 GT DUP2 DUP4 LT OR ISZERO PUSH3 0x18B JUMPI PUSH3 0x18B PUSH3 0xF2 JUMP JUMPDEST DUP2 PUSH1 0x40 MSTORE DUP3 DUP2 MSTORE PUSH1 0x20 SWAP4 POP DUP10 DUP5 DUP5 DUP8 ADD ADD GT ISZERO PUSH3 0x1A8 JUMPI PUSH1 0x0 DUP1 REVERT JUMPDEST PUSH1 0x0 SWAP2 POP JUMPDEST DUP3 DUP3 LT ISZERO PUSH3 0x1CC JUMPI DUP5 DUP3 ADD DUP5 ADD MLOAD DUP2 DUP4 ADD DUP6 ADD MSTORE SWAP1 DUP4 ADD SWAP1 PUSH3 0x1AD JUMP JUMPDEST PUSH1 0x0 SWAP3 DUP2 ADD DUP5 ADD SWAP3 SWAP1 SWAP3 MSTORE POP SWAP1 DUP7 ADD MLOAD PUSH1 0x40 SWAP1 SWAP7 ADD MLOAD SWAP1 SWAP8 SWAP6 SWAP7 POP SWAP5 SWAP4 POP POP POP POP JUMP JUMPDEST PUSH1 0x1 DUP2 DUP2 SHR SWAP1 DUP3 AND DUP1 PUSH3 0x204 JUMPI PUSH1 0x7F DUP3 AND SWAP2 POP JUMPDEST PUSH1 0x20 DUP3 LT DUP2 SUB PUSH3 0x225 JUMPI PUSH4 0x4E487B71 PUSH1 0xE0 SHL PUSH1 0x0 MSTORE PUSH1 0x22 PUSH1 0x4 MSTORE PUSH1 0x24 PUSH1 0x0 REVERT JUMPDEST POP SWAP2 SWAP1 POP JUMP JUMPDEST PUSH1 0x1F DUP3 GT ISZERO PUSH3 0x279 JUMPI PUSH1 0x0 DUP2 DUP2 MSTORE PUSH1 0x20 DUP2 KECCAK256 PUSH1 0x1F DUP6 ADD PUSH1 0x5 SHR DUP2 ADD PUSH1 0x20 DUP7 LT ISZERO PUSH3 0x254 JUMPI POP DUP1 JUMPDEST PUSH1 0x1F DUP6 ADD PUSH1 0x5 SHR DUP3 ADD SWAP2 POP JUMPDEST DUP2 DUP2 LT ISZERO PUSH3 0x275 JUMPI DUP3 DUP2 SSTORE PUSH1 0x1 ADD PUSH3 0x260 JUMP JUMPDEST POP POP POP JUMPDEST POP POP POP JUMP JUMPDEST DUP2 MLOAD PUSH1 0x1 PUSH1 0x1 PUSH1 0x40 SHL SUB DUP2 GT ISZERO PUSH3 0x29A JUMPI PUSH3 0x29A PUSH3 0xF2 JUMP JUMPDEST PUSH3 0x2B2 DUP2 PUSH3 0x2AB DUP5 SLOAD PUSH3 0x1EF JUMP JUMPDEST DUP5 PUSH3 0x22B JUMP JUMPDEST PUSH1 0x20 DUP1 PUSH1 0x1F DUP4 GT PUSH1 0x1 DUP2 EQ PUSH3 0x2EA JUMPI PUSH1 0x0 DUP5 ISZERO PUSH3 0x2D1 JUMPI POP DUP6 DUP4 ADD MLOAD JUMPDEST PUSH1 0x0 NOT PUSH1 0x3 DUP7 SWAP1 SHL SHR NOT AND PUSH1 0x1 DUP6 SWAP1 SHL OR DUP6 SSTORE PUSH3 0x275 JUMP JUMPDEST PUSH1 0x0 DUP6 DUP2 MSTORE PUSH1 0x20 DUP2 KECCAK256 PUSH1 0x1F NOT DUP7 AND SWAP2 JUMPDEST DUP3 DUP2 LT ISZERO PUSH3 0x31B JUMPI DUP9 DUP7 ADD MLOAD DUP3 SSTORE SWAP5 DUP5 ADD SWAP5 PUSH1 0x1 SWAP1 SWAP2 ADD SWAP1 DUP5 ADD PUSH3 0x2FA JUMP JUMPDEST POP DUP6 DUP3 LT ISZERO PUSH3 0x33A JUMPI DUP8 DUP6 ADD MLOAD PUSH1 0x0 NOT PUSH1 0x3 DUP9 SWAP1 SHL PUSH1 0xF8 AND SHR NOT AND DUP2 SSTORE JUMPDEST POP POP POP POP POP PUSH1 0x1 SWAP1 DUP2 SHL ADD SWAP1 SSTORE POP JUMP JUMPDEST PUSH2 0xC6A DUP1 PUSH3 0x35A PUSH1 0x0 CODECOPY PUSH1 0x0 RETURN INVALID PUSH1 0x80 PUSH1 0x40 MSTORE PUSH1 0x4 CALLDATASIZE LT PUSH2 0xE8 JUMPI PUSH1 0x0 CALLDATALOAD PUSH1 0xE0 SHR DUP1 PUSH4 0x715018A6 GT PUSH2 0x8A JUMPI DUP1 PUSH4 0xB66A0E5D GT PUSH2 0x59 JUMPI DUP1 PUSH4 0xB66A0E5D EQ PUSH2 0x23D JUMPI DUP1 PUSH4 0xDD11247E EQ PUSH2 0x252 JUMPI DUP1 PUSH4 0xE36B0B37 EQ PUSH2 0x268 JUMPI DUP1 PUSH4 0xF2FDE38B EQ PUSH2 0x27D JUMPI PUSH1 0x0 DUP1 REVERT JUMPDEST DUP1 PUSH4 0x715018A6 EQ PUSH2 0x1B4 JUMPI DUP1 PUSH4 0x8AAF2686 EQ PUSH2 0x1C9 JUMPI DUP1 PUSH4 0x8DA5CB5B EQ PUSH2 0x1FF JUMPI DUP1 PUSH4 0x8F15024F EQ PUSH2 0x227 JUMPI PUSH1 0x0 DUP1 REVERT JUMPDEST DUP1 PUSH4 0x54EC92D8 GT PUSH2 0xC6 JUMPI DUP1 PUSH4 0x54EC92D8 EQ PUSH2 0x140 JUMPI DUP1 PUSH4 0x67DD74CA EQ PUSH2 0x162 JUMPI DUP1 PUSH4 0x68428A1B EQ PUSH2 0x175 JUMPI DUP1 PUSH4 0x70CC89AD EQ PUSH2 0x19F JUMPI PUSH1 0x0 DUP1 REVERT JUMPDEST DUP1 PUSH4 0x1209B1F6 EQ PUSH2 0xED JUMPI DUP1 PUSH4 0x21B9656E EQ PUSH2 0x116 JUMPI DUP1 PUSH4 0x24600FC3 EQ PUSH2 0x12B JUMPI JUMPDEST PUSH1 0x0 DUP1 REVERT JUMPDEST CALLVALUE DUP1 ISZERO PUSH2 0xF9 JUMPI PUSH1 0x0 DUP1 REVERT JUMPDEST POP PUSH2 0x103 PUSH1 0x3 SLOAD DUP2 JUMP JUMPDEST PUSH1 0x40 MLOAD SWAP1 DUP2 MSTORE PUSH1 0x20 ADD JUMPDEST PUSH1 0x40 MLOAD DUP1 SWAP2 SUB SWAP1 RETURN JUMPDEST PUSH2 0x129 PUSH2 0x124 CALLDATASIZE PUSH1 0x4 PUSH2 0xAEE JUMP JUMPDEST PUSH2 0x29D JUMP JUMPDEST STOP JUMPDEST CALLVALUE DUP1 ISZERO PUSH2 0x137 JUMPI PUSH1 0x0 DUP1 REVERT JUMPDEST POP PUSH2 0x129 PUSH2 0x561 JUMP JUMPDEST CALLVALUE DUP1 ISZERO PUSH2 0x14C JUMPI PUSH1 0x0 DUP1 REVERT JUMPDEST POP PUSH2 0x155 PUSH2 0x68E JUMP JUMPDEST PUSH1 0x40 MLOAD PUSH2 0x10D SWAP2 SWAP1 PUSH2 0xB18 JUMP JUMPDEST PUSH2 0x129 PUSH2 0x170 CALLDATASIZE PUSH1 0x4 PUSH2 0xB66 JUMP JUMPDEST PUSH2 0x71C JUMP JUMPDEST CALLVALUE DUP1 ISZERO PUSH2 0x181 JUMPI PUSH1 0x0 DUP1 REVERT JUMPDEST POP PUSH1 0x4 SLOAD PUSH2 0x18F SWAP1 PUSH1 0xFF AND DUP2 JUMP JUMPDEST PUSH1 0x40 MLOAD SWAP1 ISZERO ISZERO DUP2 MSTORE PUSH1 0x20 ADD PUSH2 0x10D JUMP JUMPDEST CALLVALUE DUP1 ISZERO PUSH2 0x1AB JUMPI PUSH1 0x0 DUP1 REVERT JUMPDEST POP PUSH2 0x103 PUSH2 0x934 JUMP JUMPDEST CALLVALUE DUP1 ISZERO PUSH2 0x1C0 JUMPI PUSH1 0x0 DUP1 REVERT JUMPDEST POP PUSH2 0x129 PUSH2 0x972 JUMP JUMPDEST CALLVALUE DUP1 ISZERO PUSH2 0x1D5 JUMPI PUSH1 0x0 DUP1 REVERT JUMPDEST POP PUSH2 0x103 PUSH2 0x1E4 CALLDATASIZE PUSH1 0x4 PUSH2 0xB7F JUMP JUMPDEST PUSH1 0x1 PUSH1 0x1 PUSH1 0xA0 SHL SUB AND PUSH1 0x0 SWAP1 DUP2 MSTORE PUSH1 0x5 PUSH1 0x20 MSTORE PUSH1 0x40 SWAP1 KECCAK256 SLOAD SWAP1 JUMP JUMPDEST CALLVALUE DUP1 ISZERO PUSH2 0x20B JUMPI PUSH1 0x0 DUP1 REVERT JUMPDEST POP PUSH1 0x0 SLOAD PUSH1 0x40 MLOAD PUSH1 0x1 PUSH1 0x1 PUSH1 0xA0 SHL SUB SWAP1 SWAP2 AND DUP2 MSTORE PUSH1 0x20 ADD PUSH2 0x10D JUMP JUMPDEST CALLVALUE DUP1 ISZERO PUSH2 0x233 JUMPI PUSH1 0x0 DUP1 REVERT JUMPDEST POP PUSH2 0x103 PUSH1 0x6 SLOAD DUP2 JUMP JUMPDEST CALLVALUE DUP1 ISZERO PUSH2 0x249 JUMPI PUSH1 0x0 DUP1 REVERT JUMPDEST POP PUSH2 0x129 PUSH2 0x986 JUMP JUMPDEST CALLVALUE DUP1 ISZERO PUSH2 0x25E JUMPI PUSH1 0x0 DUP1 REVERT JUMPDEST POP PUSH2 0x103 PUSH1 0x2 SLOAD DUP2 JUMP JUMPDEST CALLVALUE DUP1 ISZERO PUSH2 0x274 JUMPI PUSH1 0x0 DUP1 REVERT JUMPDEST POP PUSH2 0x129 PUSH2 0x9D4 JUMP JUMPDEST CALLVALUE DUP1 ISZERO PUSH2 0x289 JUMPI PUSH1 0x0 DUP1 REVERT JUMPDEST POP PUSH2 0x129 PUSH2 0x298 CALLDATASIZE PUSH1 0x4 PUSH2 0xB7F JUMP JUMPDEST PUSH2 0xA17 JUMP JUMPDEST PUSH1 0x4 SLOAD PUSH1 0xFF AND PUSH2 0x2E9 JUMPI PUSH1 0x40 MLOAD PUSH3 0x461BCD PUSH1 0xE5 SHL DUP2 MSTORE PUSH1 0x20 PUSH1 0x4 DUP3 ADD MSTORE PUSH1 0x12 PUSH1 0x24 DUP3 ADD MSTORE PUSH18 0x5370727A6564617A2077796C61637A6F6E61 PUSH1 0x70 SHL PUSH1 0x44 DUP3 ADD MSTORE PUSH1 0x64 ADD JUMPDEST PUSH1 0x40 MLOAD DUP1 SWAP2 SUB SWAP1 REVERT JUMPDEST PUSH1 0x1 PUSH1 0x1 PUSH1 0xA0 SHL SUB DUP3 AND PUSH2 0x33F JUMPI PUSH1 0x40 MLOAD PUSH3 0x461BCD PUSH1 0xE5 SHL DUP2 MSTORE PUSH1 0x20 PUSH1 0x4 DUP3 ADD MSTORE PUSH1 0x1A PUSH1 0x24 DUP3 ADD MSTORE PUSH32 0x4E6965706F707261776E79206164726573206F6462696F726379000000000000 PUSH1 0x44 DUP3 ADD MSTORE PUSH1 0x64 ADD PUSH2 0x2E0 JUMP JUMPDEST PUSH1 0x0 DUP2 GT PUSH2 0x37E JUMPI PUSH1 0x40 MLOAD PUSH3 0x461BCD PUSH1 0xE5 SHL DUP2 MSTORE PUSH1 0x20 PUSH1 0x4 DUP3 ADD MSTORE PUSH1 0xC PUSH1 0x24 DUP3 ADD MSTORE PUSH12 0x5A65726F2062696C65746F77 PUSH1 0xA0 SHL PUSH1 0x44 DUP3 ADD MSTORE PUSH1 0x64 ADD PUSH2 0x2E0 JUMP JUMPDEST PUSH1 0x0 DUP2 PUSH1 0x3 SLOAD PUSH2 0x38E SWAP2 SWAP1 PUSH2 0xBB7 JUMP JUMPDEST SWAP1 POP DUP1 CALLVALUE EQ PUSH2 0x3DF JUMPI PUSH1 0x40 MLOAD PUSH3 0x461BCD PUSH1 0xE5 SHL DUP2 MSTORE PUSH1 0x20 PUSH1 0x4 DUP3 ADD MSTORE PUSH1 0x18 PUSH1 0x24 DUP3 ADD MSTORE PUSH32 0x5A6C65204554482070727A79206F647370727A6564617A790000000000000000 PUSH1 0x44 DUP3 ADD MSTORE PUSH1 0x64 ADD PUSH2 0x2E0 JUMP JUMPDEST CALLER PUSH1 0x0 SWAP1 DUP2 MSTORE PUSH1 0x5 PUSH1 0x20 MSTORE PUSH1 0x40 SWAP1 KECCAK256 SLOAD DUP3 GT ISZERO PUSH2 0x436 JUMPI PUSH1 0x40 MLOAD PUSH3 0x461BCD PUSH1 0xE5 SHL DUP2 MSTORE PUSH1 0x20 PUSH1 0x4 DUP3 ADD MSTORE PUSH1 0x15 PUSH1 0x24 DUP3 ADD MSTORE PUSH21 0x4E6965206D61737A2074796C752062696C65746F77 PUSH1 0x58 SHL PUSH1 0x44 DUP3 ADD MSTORE PUSH1 0x64 ADD PUSH2 0x2E0 JUMP JUMPDEST CALLER PUSH1 0x0 SWAP1 DUP2 MSTORE PUSH1 0x5 PUSH1 0x20 MSTORE PUSH1 0x40 DUP2 KECCAK256 DUP1 SLOAD DUP5 SWAP3 SWAP1 PUSH2 0x455 SWAP1 DUP5 SWAP1 PUSH2 0xBD4 JUMP JUMPDEST SWAP1 SWAP2 SSTORE POP POP PUSH1 0x1 PUSH1 0x1 PUSH1 0xA0 SHL SUB DUP4 AND PUSH1 0x0 SWAP1 DUP2 MSTORE PUSH1 0x5 PUSH1 0x20 MSTORE PUSH1 0x40 DUP2 KECCAK256 DUP1 SLOAD DUP5 SWAP3 SWAP1 PUSH2 0x482 SWAP1 DUP5 SWAP1 PUSH2 0xBE7 JUMP JUMPDEST SWAP1 SWAP2 SSTORE POP POP PUSH1 0x40 MLOAD PUSH1 0x0 SWAP1 CALLER SWAP1 CALLVALUE SWAP1 DUP4 DUP2 DUP2 DUP2 DUP6 DUP8 GAS CALL SWAP3 POP POP POP RETURNDATASIZE DUP1 PUSH1 0x0 DUP2 EQ PUSH2 0x4C9 JUMPI PUSH1 0x40 MLOAD SWAP2 POP PUSH1 0x1F NOT PUSH1 0x3F RETURNDATASIZE ADD AND DUP3 ADD PUSH1 0x40 MSTORE RETURNDATASIZE DUP3 MSTORE RETURNDATASIZE PUSH1 0x0 PUSH1 0x20 DUP5 ADD RETURNDATACOPY PUSH2 0x4CE JUMP JUMPDEST PUSH1 0x60 SWAP2 POP JUMPDEST POP POP SWAP1 POP DUP1 PUSH2 0x516 JUMPI PUSH1 0x40 MLOAD PUSH3 0x461BCD PUSH1 0xE5 SHL DUP2 MSTORE PUSH1 0x20 PUSH1 0x4 DUP3 ADD MSTORE PUSH1 0x14 PUSH1 0x24 DUP3 ADD MSTORE PUSH20 0x50727A656C657720455448206E69657564616E79 PUSH1 0x60 SHL PUSH1 0x44 DUP3 ADD MSTORE PUSH1 0x64 ADD PUSH2 0x2E0 JUMP JUMPDEST PUSH1 0x40 DUP1 MLOAD DUP5 DUP2 MSTORE CALLVALUE PUSH1 0x20 DUP3 ADD MSTORE PUSH1 0x1 PUSH1 0x1 PUSH1 0xA0 SHL SUB DUP7 AND SWAP2 CALLER SWAP2 PUSH32 0xB84ACE5A3C03DC5DD347BB472B28268EE65AA672083E3F1DB35D8A6842DB16F1 SWAP2 ADD PUSH1 0x40 MLOAD DUP1 SWAP2 SUB SWAP1 LOG3 POP POP POP POP JUMP JUMPDEST PUSH2 0x569 PUSH2 0xA55 JUMP JUMPDEST SELFBALANCE DUP1 PUSH2 0x5A6 JUMPI PUSH1 0x40 MLOAD PUSH3 0x461BCD PUSH1 0xE5 SHL DUP2 MSTORE PUSH1 0x20 PUSH1 0x4 DUP3 ADD MSTORE PUSH1 0xC PUSH1 0x24 DUP3 ADD MSTORE PUSH12 0x4272616B2073726F646B6F77 PUSH1 0xA0 SHL PUSH1 0x44 DUP3 ADD MSTORE PUSH1 0x64 ADD PUSH2 0x2E0 JUMP JUMPDEST PUSH1 0x0 DUP1 SLOAD PUSH1 0x40 MLOAD PUSH1 0x1 PUSH1 0x1 PUSH1 0xA0 SHL SUB SWAP1 SWAP2 AND SWAP1 DUP4 SWAP1 DUP4 DUP2 DUP2 DUP2 DUP6 DUP8 GAS CALL SWAP3 POP POP POP RETURNDATASIZE DUP1 PUSH1 0x0 DUP2 EQ PUSH2 0x5F3 JUMPI PUSH1 0x40 MLOAD SWAP2 POP PUSH1 0x1F NOT PUSH1 0x3F RETURNDATASIZE ADD AND DUP3 ADD PUSH1 0x40 MSTORE RETURNDATASIZE DUP3 MSTORE RETURNDATASIZE PUSH1 0x0 PUSH1 0x20 DUP5 ADD RETURNDATACOPY PUSH2 0x5F8 JUMP JUMPDEST PUSH1 0x60 SWAP2 POP JUMPDEST POP POP SWAP1 POP DUP1 PUSH2 0x63C JUMPI PUSH1 0x40 MLOAD PUSH3 0x461BCD PUSH1 0xE5 SHL DUP2 MSTORE PUSH1 0x20 PUSH1 0x4 DUP3 ADD MSTORE PUSH1 0x10 PUSH1 0x24 DUP3 ADD MSTORE PUSH16 0x50727A656C6577206E69657564616E79 PUSH1 0x80 SHL PUSH1 0x44 DUP3 ADD MSTORE PUSH1 0x64 ADD PUSH2 0x2E0 JUMP JUMPDEST PUSH1 0x0 SLOAD PUSH1 0x1 PUSH1 0x1 PUSH1 0xA0 SHL SUB AND PUSH1 0x1 PUSH1 0x1 PUSH1 0xA0 SHL SUB AND PUSH32 0xEAFF4B37086828766AD3268786972C0CD24259D4C87A80F9D3963A3C3D999B0D DUP4 PUSH1 0x40 MLOAD PUSH2 0x682 SWAP2 DUP2 MSTORE PUSH1 0x20 ADD SWAP1 JUMP JUMPDEST PUSH1 0x40 MLOAD DUP1 SWAP2 SUB SWAP1 LOG2 POP POP JUMP JUMPDEST PUSH1 0x1 DUP1 SLOAD PUSH2 0x69B SWAP1 PUSH2 0xBFA JUMP JUMPDEST DUP1 PUSH1 0x1F ADD PUSH1 0x20 DUP1 SWAP2 DIV MUL PUSH1 0x20 ADD PUSH1 0x40 MLOAD SWAP1 DUP2 ADD PUSH1 0x40 MSTORE DUP1 SWAP3 SWAP2 SWAP1 DUP2 DUP2 MSTORE PUSH1 0x20 ADD DUP3 DUP1 SLOAD PUSH2 0x6C7 SWAP1 PUSH2 0xBFA JUMP JUMPDEST DUP1 ISZERO PUSH2 0x714 JUMPI DUP1 PUSH1 0x1F LT PUSH2 0x6E9 JUMPI PUSH2 0x100 DUP1 DUP4 SLOAD DIV MUL DUP4 MSTORE SWAP2 PUSH1 0x20 ADD SWAP2 PUSH2 0x714 JUMP JUMPDEST DUP3 ADD SWAP2 SWAP1 PUSH1 0x0 MSTORE PUSH1 0x20 PUSH1 0x0 KECCAK256 SWAP1 JUMPDEST DUP2 SLOAD DUP2 MSTORE SWAP1 PUSH1 0x1 ADD SWAP1 PUSH1 0x20 ADD DUP1 DUP4 GT PUSH2 0x6F7 JUMPI DUP3 SWAP1 SUB PUSH1 0x1F AND DUP3 ADD SWAP2 JUMPDEST POP POP POP POP POP DUP2 JUMP JUMPDEST PUSH1 0x4 SLOAD PUSH1 0xFF AND PUSH2 0x763 JUMPI PUSH1 0x40 MLOAD PUSH3 0x461BCD PUSH1 0xE5 SHL DUP2 MSTORE PUSH1 0x20 PUSH1 0x4 DUP3 ADD MSTORE PUSH1 0x12 PUSH1 0x24 DUP3 ADD MSTORE PUSH18 0x5370727A6564617A2077796C61637A6F6E61 PUSH1 0x70 SHL PUSH1 0x44 DUP3 ADD MSTORE PUSH1 0x64 ADD PUSH2 0x2E0 JUMP JUMPDEST PUSH1 0x0 DUP2 GT PUSH2 0x7A2 JUMPI PUSH1 0x40 MLOAD PUSH3 0x461BCD PUSH1 0xE5 SHL DUP2 MSTORE PUSH1 0x20 PUSH1 0x4 DUP3 ADD MSTORE PUSH1 0xC PUSH1 0x24 DUP3 ADD MSTORE PUSH12 0x5A65726F2062696C65746F77 PUSH1 0xA0 SHL PUSH1 0x44 DUP3 ADD MSTORE PUSH1 0x64 ADD PUSH2 0x2E0 JUMP JUMPDEST PUSH1 0x0 DUP2 PUSH1 0x3 SLOAD PUSH2 0x7B2 SWAP2 SWAP1 PUSH2 0xBB7 JUMP JUMPDEST SWAP1 POP DUP1 CALLVALUE EQ PUSH2 0x7F5 JUMPI PUSH1 0x40 MLOAD PUSH3 0x461BCD PUSH1 0xE5 SHL DUP2 MSTORE PUSH1 0x20 PUSH1 0x4 DUP3 ADD MSTORE PUSH1 0xF PUSH1 0x24 DUP3 ADD MSTORE PUSH15 0xB4D8C240EEC2E4E8DEE6C6408AA89 PUSH1 0x8B SHL PUSH1 0x44 DUP3 ADD MSTORE PUSH1 0x64 ADD PUSH2 0x2E0 JUMP JUMPDEST PUSH1 0x0 PUSH1 0x5 PUSH1 0x0 PUSH2 0x80D PUSH1 0x0 SLOAD PUSH1 0x1 PUSH1 0x1 PUSH1 0xA0 SHL SUB AND SWAP1 JUMP JUMPDEST PUSH1 0x1 PUSH1 0x1 PUSH1 0xA0 SHL SUB AND PUSH1 0x1 PUSH1 0x1 PUSH1 0xA0 SHL SUB AND DUP2 MSTORE PUSH1 0x20 ADD SWAP1 DUP2 MSTORE PUSH1 0x20 ADD PUSH1 0x0 KECCAK256 SLOAD SWAP1 POP DUP3 DUP2 LT ISZERO PUSH2 0x872 JUMPI PUSH1 0x40 MLOAD PUSH3 0x461BCD PUSH1 0xE5 SHL DUP2 MSTORE PUSH1 0x20 PUSH1 0x4 DUP3 ADD MSTORE PUSH1 0xF PUSH1 0x24 DUP3 ADD MSTORE PUSH15 0x5A61206D616C6F2062696C65746F77 PUSH1 0x88 SHL PUSH1 0x44 DUP3 ADD MSTORE PUSH1 0x64 ADD PUSH2 0x2E0 JUMP JUMPDEST DUP3 PUSH1 0x5 PUSH1 0x0 PUSH2 0x889 PUSH1 0x0 SLOAD PUSH1 0x1 PUSH1 0x1 PUSH1 0xA0 SHL SUB AND SWAP1 JUMP JUMPDEST PUSH1 0x1 PUSH1 0x1 PUSH1 0xA0 SHL SUB AND PUSH1 0x1 PUSH1 0x1 PUSH1 0xA0 SHL SUB AND DUP2 MSTORE PUSH1 0x20 ADD SWAP1 DUP2 MSTORE PUSH1 0x20 ADD PUSH1 0x0 KECCAK256 PUSH1 0x0 DUP3 DUP3 SLOAD PUSH2 0x8B8 SWAP2 SWAP1 PUSH2 0xBD4 JUMP JUMPDEST SWAP1 SWAP2 SSTORE POP POP CALLER PUSH1 0x0 SWAP1 DUP2 MSTORE PUSH1 0x5 PUSH1 0x20 MSTORE PUSH1 0x40 DUP2 KECCAK256 DUP1 SLOAD DUP6 SWAP3 SWAP1 PUSH2 0x8DC SWAP1 DUP5 SWAP1 PUSH2 0xBE7 JUMP JUMPDEST SWAP3 POP POP DUP2 SWAP1 SSTORE POP DUP3 PUSH1 0x6 PUSH1 0x0 DUP3 DUP3 SLOAD PUSH2 0x8F5 SWAP2 SWAP1 PUSH2 0xBE7 JUMP JUMPDEST SWAP1 SWAP2 SSTORE POP POP PUSH1 0x40 MLOAD DUP4 DUP2 MSTORE CALLER SWAP1 PUSH32 0xE11731CB4F1EB3EC3DD09BDC96809BB07365F4C881CDA3192B397A4BC0B6DA40 SWAP1 PUSH1 0x20 ADD PUSH1 0x40 MLOAD DUP1 SWAP2 SUB SWAP1 LOG2 POP POP POP JUMP JUMPDEST PUSH1 0x0 PUSH1 0x5 PUSH1 0x0 PUSH2 0x94C PUSH1 0x0 SLOAD PUSH1 0x1 PUSH1 0x1 PUSH1 0xA0 SHL SUB AND SWAP1 JUMP JUMPDEST PUSH1 0x1 PUSH1 0x1 PUSH1 0xA0 SHL SUB AND PUSH1 0x1 PUSH1 0x1 PUSH1 0xA0 SHL SUB AND DUP2 MSTORE PUSH1 0x20 ADD SWAP1 DUP2 MSTORE PUSH1 0x20 ADD PUSH1 0x0 KECCAK256 SLOAD SWAP1 POP SWAP1 JUMP JUMPDEST PUSH2 0x97A PUSH2 0xA55 JUMP JUMPDEST PUSH2 0x984 PUSH1 0x0 PUSH2 0xA82 JUMP JUMPDEST JUMP JUMPDEST PUSH2 0x98E PUSH2 0xA55 JUMP JUMPDEST PUSH1 0x4 DUP1 SLOAD PUSH1 0xFF NOT AND PUSH1 0x1 SWAP1 DUP2 OR SWAP1 SWAP2 SSTORE PUSH1 0x40 MLOAD SWAP1 DUP2 MSTORE PUSH32 0xE333F8A36EE86E754548AF2D6F50C73FF0D501E22E6C784662123DBBE493C602 SWAP1 PUSH1 0x20 ADD JUMPDEST PUSH1 0x40 MLOAD DUP1 SWAP2 SUB SWAP1 LOG1 JUMP JUMPDEST PUSH2 0x9DC PUSH2 0xA55 JUMP JUMPDEST PUSH1 0x4 DUP1 SLOAD PUSH1 0xFF NOT AND SWAP1 SSTORE PUSH1 0x40 MLOAD PUSH1 0x0 DUP2 MSTORE PUSH32 0xE333F8A36EE86E754548AF2D6F50C73FF0D501E22E6C784662123DBBE493C602 SWAP1 PUSH1 0x20 ADD PUSH2 0x9CA JUMP JUMPDEST PUSH2 0xA1F PUSH2 0xA55 JUMP JUMPDEST PUSH1 0x1 PUSH1 0x1 PUSH1 0xA0 SHL SUB DUP2 AND PUSH2 0xA49 JUMPI PUSH1 0x40 MLOAD PUSH4 0x1E4FBDF7 PUSH1 0xE0 SHL DUP2 MSTORE PUSH1 0x0 PUSH1 0x4 DUP3 ADD MSTORE PUSH1 0x24 ADD PUSH2 0x2E0 JUMP JUMPDEST PUSH2 0xA52 DUP2 PUSH2 0xA82 JUMP JUMPDEST POP JUMP JUMPDEST PUSH1 0x0 SLOAD PUSH1 0x1 PUSH1 0x1 PUSH1 0xA0 SHL SUB AND CALLER EQ PUSH2 0x984 JUMPI PUSH1 0x40 MLOAD PUSH4 0x118CDAA7 PUSH1 0xE0 SHL DUP2 MSTORE CALLER PUSH1 0x4 DUP3 ADD MSTORE PUSH1 0x24 ADD PUSH2 0x2E0 JUMP JUMPDEST PUSH1 0x0 DUP1 SLOAD PUSH1 0x1 PUSH1 0x1 PUSH1 0xA0 SHL SUB DUP4 DUP2 AND PUSH1 0x1 PUSH1 0x1 PUSH1 0xA0 SHL SUB NOT DUP4 AND DUP2 OR DUP5 SSTORE PUSH1 0x40 MLOAD SWAP2 SWAP1 SWAP3 AND SWAP3 DUP4 SWAP2 PUSH32 0x8BE0079C531659141344CD1FD0A4F28419497F9722A3DAAFE3B4186F6B6457E0 SWAP2 SWAP1 LOG3 POP POP JUMP JUMPDEST DUP1 CALLDATALOAD PUSH1 0x1 PUSH1 0x1 PUSH1 0xA0 SHL SUB DUP2 AND DUP2 EQ PUSH2 0xAE9 JUMPI PUSH1 0x0 DUP1 REVERT JUMPDEST SWAP2 SWAP1 POP JUMP JUMPDEST PUSH1 0x0 DUP1 PUSH1 0x40 DUP4 DUP6 SUB SLT ISZERO PUSH2 0xB01 JUMPI PUSH1 0x0 DUP1 REVERT JUMPDEST PUSH2 0xB0A DUP4 PUSH2 0xAD2 JUMP JUMPDEST SWAP5 PUSH1 0x20 SWAP4 SWAP1 SWAP4 ADD CALLDATALOAD SWAP4 POP POP POP JUMP JUMPDEST PUSH1 0x0 PUSH1 0x20 DUP1 DUP4 MSTORE DUP4 MLOAD DUP1 DUP3 DUP6 ADD MSTORE PUSH1 0x0 JUMPDEST DUP2 DUP2 LT ISZERO PUSH2 0xB45 JUMPI DUP6 DUP2 ADD DUP4 ADD MLOAD DUP6 DUP3 ADD PUSH1 0x40 ADD MSTORE DUP3 ADD PUSH2 0xB29 JUMP JUMPDEST POP PUSH1 0x0 PUSH1 0x40 DUP3 DUP7 ADD ADD MSTORE PUSH1 0x40 PUSH1 0x1F NOT PUSH1 0x1F DUP4 ADD AND DUP6 ADD ADD SWAP3 POP POP POP SWAP3 SWAP2 POP POP JUMP JUMPDEST PUSH1 0x0 PUSH1 0x20 DUP3 DUP5 SUB SLT ISZERO PUSH2 0xB78 JUMPI PUSH1 0x0 DUP1 REVERT JUMPDEST POP CALLDATALOAD SWAP2 SWAP1 POP JUMP JUMPDEST PUSH1 0x0 PUSH1 0x20 DUP3 DUP5 SUB SLT ISZERO PUSH2 0xB91 JUMPI PUSH1 0x0 DUP1 REVERT JUMPDEST PUSH2 0xB9A DUP3 PUSH2 0xAD2 JUMP JUMPDEST SWAP4 SWAP3 POP POP POP JUMP JUMPDEST PUSH4 0x4E487B71 PUSH1 0xE0 SHL PUSH1 0x0 MSTORE PUSH1 0x11 PUSH1 0x4 MSTORE PUSH1 0x24 PUSH1 0x0 REVERT JUMPDEST DUP1 DUP3 MUL DUP2 ISZERO DUP3 DUP3 DIV DUP5 EQ OR PUSH2 0xBCE JUMPI PUSH2 0xBCE PUSH2 0xBA1 JUMP JUMPDEST SWAP3 SWAP2 POP POP JUMP JUMPDEST DUP2 DUP2 SUB DUP2 DUP2 GT ISZERO PUSH2 0xBCE JUMPI PUSH2 0xBCE PUSH2 0xBA1 JUMP JUMPDEST DUP1 DUP3 ADD DUP1 DUP3 GT ISZERO PUSH2 0xBCE JUMPI PUSH2 0xBCE PUSH2 0xBA1 JUMP JUMPDEST PUSH1 0x1 DUP2 DUP2 SHR SWAP1 DUP3 AND DUP1 PUSH2 0xC0E JUMPI PUSH1 0x7F DUP3 AND SWAP2 POP JUMPDEST PUSH1 0x20 DUP3 LT DUP2 SUB PUSH2 0xC2E JUMPI PUSH4 0x4E487B71 PUSH1 0xE0 SHL PUSH1 0x0 MSTORE PUSH1 0x22 PUSH1 0x4 MSTORE PUSH1 0x24 PUSH1 0x0 REVERT JUMPDEST POP SWAP2 SWAP1 POP JUMP INVALID LOG2 PUSH5 0x6970667358 0x22 SLT KECCAK256 LOG2 PUSH13 0x81DA3ECF34A2C5BD0C8EF93B55 BALANCE ADDRESS 0x4D EXTCODECOPY BLOCKHASH INVALID 0xB1 MLOAD 0x28 RETURNDATACOPY 0x25 0x5E SWAP11 0xEB DUP14 RETURNDATASIZE DUP8 PUSH5 0x736F6C6343 STOP ADDMOD EQ STOP CALLER "},"methodIdentifiers":{"buyTicket(uint256)":"67dd74ca","concertName()":"54ec92d8","getMyTickets(address)":"8aaf2686","getRemainingTickets()":"70cc89ad","owner()":"8da5cb5b","renounceOwnership()":"715018a6","resellTicket(address,uint256)":"21b9656e","saleActive()":"68428a1b","startSale()":"b66a0e5d","stopSale()":"e36b0b37","ticketPrice()":"1209b1f6","ticketsSold()":"8f15024f","totalTickets()":"dd11247e","transferOwnership(address)":"f2fde38b","withdrawFunds()":"24600fc3"}}}}}