{
  "_format": "hh-sol-artifact-1",
  "contractName": "ConcertTickets",
  "sourceName": "contracts/ConcertTickets.sol",
  "abi": [
    {
      "inputs": [
        {
          "internalType": "string",
          "name": "_concertName",
          "type": "string"
        },
        {
          "internalType": "uint256",
          "name": "_totalTickets",
          "type": "uint256"
        },
        {
          "internalType": "uint256",
          "name": "_ticketPriceWei",
          "type": "uint256"
        }
      ],
      "stateMutability": "nonpayable",
      "type": "constructor"
    },
    {
      "inputs": [
        {
          "internalType": "address",
          "name": "owner",
          "type": "address"
        }
      ],
      "name": "OwnableInvalidOwner",
      "type": "error"
    },
    {
      "inputs": [
        {
          "internalType": "address",
          "name": "account",
          "type": "address"
        }
      ],
      "name": "OwnableUnauthorizedAccount",
      "type": "error"
    },
    {
      "anonymous": false,
      "inputs": [
        {
          "indexed": true,
          "internalType": "address",
          "name": "owner",
          "type": "address"
        },
        {
          "indexed": false,
          "internalType": "uint256",
          "name": "amount",
          "type": "uint256"
        }
      ],
      "name": "FundsWithdrawn",
      "type": "event"
    },
    {
      "anonymous": false,
      "inputs": [
        {
          "indexed": true,
          "internalType": "address",
          "name": "previousOwner",
          "type": "address"
        },
        {
          "indexed": true,
          "internalType": "address",
          "name": "newOwner",
          "type": "address"
        }
      ],
      "name": "OwnershipTransferred",
      "type": "event"
    },
    {
      "anonymous": false,
      "inputs": [
        {
          "indexed": false,
          "internalType": "bool",
          "name": "active",
          "type": "bool"
        }
      ],
      "name": "SaleStateChanged",
      "type": "event"
    },
    {
      "anonymous": false,
      "inputs": [
        {
          "indexed": true,
          "internalType": "address",
          "name": "buyer",
          "type": "address"
        },
        {
          "indexed": false,
          "internalType": "uint256",
          "name": "amount",
          "type": "uint256"
        }
      ],
      "name": "TicketsPurchased",
      "type": "event"
    },
    {
      "anonymous": false,
      "inputs": [
        {
          "indexed": true,
          "internalType": "address",
          "name": "from",
          "type": "address"
        },
        {
          "indexed": true,
          "internalType": "address",
          "name": "to",
          "type": "address"
        },
        {
          "indexed": false,
          "internalType": "uint256",
          "name": "amount",
          "type": "uint256"
        },
        {
          "indexed": false,
          "internalType": "uint256",
          "name": "price",
          "type": "uint256"
        }
      ],
      "name": "TicketsResold",
      "type": "event"
    },
    {
      "inputs": [
        {
          "internalType": "uint256",
          "name": "_amount",
          "type": "uint256"
        }
      ],
      "name": "buyTicket",
      "outputs": [],
      "stateMutability": "payable",
      "type": "function"
    },
    {
      "inputs": [],
      "name": "concertName",
      "outputs": [
        {
          "internalType": "string",
          "name": "",
          "type": "string"
        }
      ],
      "stateMutability": "view",
      "type": "function"
    },
    {
      "inputs": [
        {
          "internalType": "address",
          "name": "_user",
          "type": "address"
        }
      ],
      "name": "getMyTickets",
      "outputs": [
        {
          "internalType": "uint256",
          "name": "",
          "type": "uint256"
        }
      ],
      "stateMutability": "view",
      "type": "function"
    },
    {
      "inputs": [],
      "name": "getRemainingTickets",
      "outputs": [
        {
          "internalType": "uint256",
          "name": "",
          "type": "uint256"
        }
      ],
      "stateMutability": "view",
      "type": "function"
    },
    {
      "inputs": [],
      "name": "owner",
      "outputs": [
        {
          "internalType": "address",
          "name": "",
          "type": "address"
        }
      ],
      "stateMutability": "view",
      "type": "function"
    },
    {
      "inputs": [],
      "name": "renounceOwnership",
      "outputs": [],
      "stateMutability": "nonpayable",
      "type": "function"
    },
    {
      "inputs": [
        {
          "internalType": "address",
          "name": "_to",
          "type": "address"
        },
        {
          "internalType": "uint256",
          "name": "_amount",
          "type": "uint256"
        }
      ],
      "name": "resellTicket",
      "outputs": [],
      "stateMutability": "payable",
      "type": "function"
    },
    {
      "inputs": [],
      "name": "saleActive",
      "outputs": [
        {
          "internalType": "bool",
          "name": "",
          "type": "bool"
        }
      ],
      "stateMutability": "view",
      "type": "function"
    },
    {
      "inputs": [],
      "name": "startSale",
      "outputs": [],
      "stateMutability": "nonpayable",
      "type": "function"
    },
    {
      "inputs": [],
      "name": "stopSale",
      "outputs": [],
      "stateMutability": "nonpayable",
      "type": "function"
    },
    {
      "inputs": [],
      "name": "ticketPrice",
      "outputs": [
        {
          "internalType": "uint256",
          "name": "",
          "type": "uint256"
        }
      ],
      "stateMutability": "view",
      "type": "function"
    },
    {
      "inputs": [],
      "name": "ticketsSold",
      "outputs": [
        {
          "internalType": "uint256",
          "name": "",
          "type": "uint256"
        }
      ],
      "stateMutability": "view",
      "type": "function"
    },
    {
      "inputs": [],
      "name": "totalTickets",
      "outputs": [
        {
          "internalType": "uint256",
          "name": "",
          "type": "uint256"
        }
      ],
      "stateMutability": "view",
      "type": "function"
    },
    {
      "inputs": [
        {
          "internalType": "address",
          "name": "newOwner",
          "type": "address"
        }
      ],
      "name": "transferOwnership",
      "outputs": [],
      "stateMutability": "nonpayable",
      "type": "function"
    },
    {
      "inputs": [],
      "name": "withdrawFunds",
      "outputs": [],
      "stateMutability": "nonpayable",
      "type": "function"
    }
  ],
  "bytecode": "0x60806040523480156200001157600080fd5b5060405162000fc438038062000fc4833981016040819052620000349162000108565b33806200005b57604051631e4fbdf760e01b81526000600482015260240160405180910390fd5b6200006681620000a2565b5060016200007584826200027e565b5060028290556003556004805460ff1916600117905533600090815260056020526040902055506200034a565b600080546001600160a01b038381166001600160a01b0319831681178455604051919092169283917f8be0079c531659141344cd1fd0a4f28419497f9722a3daafe3b4186f6b6457e09190a35050565b634e487b7160e01b600052604160045260246000fd5b6000806000606084860312156200011e57600080fd5b83516001600160401b03808211156200013657600080fd5b818601915086601f8301126200014b57600080fd5b815181811115620001605762000160620000f2565b604051601f8201601f19908116603f011681019083821181831017156200018b576200018b620000f2565b81604052828152602093508984848701011115620001a857600080fd5b600091505b82821015620001cc5784820184015181830185015290830190620001ad565b600092810184019290925250908601516040909601519097959650949350505050565b600181811c908216806200020457607f821691505b6020821081036200022557634e487b7160e01b600052602260045260246000fd5b50919050565b601f8211156200027957600081815260208120601f850160051c81016020861015620002545750805b601f850160051c820191505b81811015620002755782815560010162000260565b5050505b505050565b81516001600160401b038111156200029a576200029a620000f2565b620002b281620002ab8454620001ef565b846200022b565b602080601f831160018114620002ea5760008415620002d15750858301515b600019600386901b1c1916600185901b17855562000275565b600085815260208120601f198616915b828110156200031b57888601518255948401946001909101908401620002fa565b50858210156200033a5787850151600019600388901b60f8161c191681555b5050505050600190811b01905550565b610c6a806200035a6000396000f3fe6080604052600436106100e85760003560e01c8063715018a61161008a578063b66a0e5d11610059578063b66a0e5d1461023d578063dd11247e14610252578063e36b0b3714610268578063f2fde38b1461027d57600080fd5b8063715018a6146101b45780638aaf2686146101c95780638da5cb5b146101ff5780638f15024f1461022757600080fd5b806354ec92d8116100c657806354ec92d81461014057806367dd74ca1461016257806368428a1b1461017557806370cc89ad1461019f57600080fd5b80631209b1f6146100ed57806321b9656e1461011657806324600fc31461012b575b600080fd5b3480156100f957600080fd5b5061010360035481565b6040519081526020015b60405180910390f35b610129610124366004610aee565b61029d565b005b34801561013757600080fd5b50610129610561565b34801561014c57600080fd5b5061015561068e565b60405161010d9190610b18565b610129610170366004610b66565b61071c565b34801561018157600080fd5b5060045461018f9060ff1681565b604051901515815260200161010d565b3480156101ab57600080fd5b50610103610934565b3480156101c057600080fd5b50610129610972565b3480156101d557600080fd5b506101036101e4366004610b7f565b6001600160a01b031660009081526005602052604090205490565b34801561020b57600080fd5b506000546040516001600160a01b03909116815260200161010d565b34801561023357600080fd5b5061010360065481565b34801561024957600080fd5b50610129610986565b34801561025e57600080fd5b5061010360025481565b34801561027457600080fd5b506101296109d4565b34801561028957600080fd5b50610129610298366004610b7f565b610a17565b60045460ff166102e95760405162461bcd60e51b81526020600482015260126024820152715370727a6564617a2077796c61637a6f6e6160701b60448201526064015b60405180910390fd5b6001600160a01b03821661033f5760405162461bcd60e51b815260206004820152601a60248201527f4e6965706f707261776e79206164726573206f6462696f72637900000000000060448201526064016102e0565b6000811161037e5760405162461bcd60e51b815260206004820152600c60248201526b5a65726f2062696c65746f7760a01b60448201526064016102e0565b60008160035461038e9190610bb7565b90508034146103df5760405162461bcd60e51b815260206004820152601860248201527f5a6c65204554482070727a79206f647370727a6564617a79000000000000000060448201526064016102e0565b336000908152600560205260409020548211156104365760405162461bcd60e51b81526020600482015260156024820152744e6965206d61737a2074796c752062696c65746f7760581b60448201526064016102e0565b3360009081526005602052604081208054849290610455908490610bd4565b90915550506001600160a01b03831660009081526005602052604081208054849290610482908490610be7565b9091555050604051600090339034908381818185875af1925050503d80600081146104c9576040519150601f19603f3d011682016040523d82523d6000602084013e6104ce565b606091505b50509050806105165760405162461bcd60e51b815260206004820152601460248201527350727a656c657720455448206e69657564616e7960601b60448201526064016102e0565b604080518481523460208201526001600160a01b0386169133917fb84ace5a3c03dc5dd347bb472b28268ee65aa672083e3f1db35d8a6842db16f1910160405180910390a350505050565b610569610a55565b47806105a65760405162461bcd60e51b815260206004820152600c60248201526b4272616b2073726f646b6f7760a01b60448201526064016102e0565b600080546040516001600160a01b039091169083908381818185875af1925050503d80600081146105f3576040519150601f19603f3d011682016040523d82523d6000602084013e6105f8565b606091505b505090508061063c5760405162461bcd60e51b815260206004820152601060248201526f50727a656c6577206e69657564616e7960801b60448201526064016102e0565b6000546001600160a01b03166001600160a01b03167feaff4b37086828766ad3268786972c0cd24259d4c87a80f9d3963a3c3d999b0d8360405161068291815260200190565b60405180910390a25050565b6001805461069b90610bfa565b80601f01602080910402602001604051908101604052809291908181526020018280546106c790610bfa565b80156107145780601f106106e957610100808354040283529160200191610714565b820191906000526020600020905b8154815290600101906020018083116106f757829003601f168201915b505050505081565b60045460ff166107635760405162461bcd60e51b81526020600482015260126024820152715370727a6564617a2077796c61637a6f6e6160701b60448201526064016102e0565b600081116107a25760405162461bcd60e51b815260206004820152600c60248201526b5a65726f2062696c65746f7760a01b60448201526064016102e0565b6000816003546107b29190610bb7565b90508034146107f55760405162461bcd60e51b815260206004820152600f60248201526e0b4d8c240eec2e4e8dee6c6408aa89608b1b60448201526064016102e0565b60006005600061080d6000546001600160a01b031690565b6001600160a01b03166001600160a01b03168152602001908152602001600020549050828110156108725760405162461bcd60e51b815260206004820152600f60248201526e5a61206d616c6f2062696c65746f7760881b60448201526064016102e0565b82600560006108896000546001600160a01b031690565b6001600160a01b03166001600160a01b0316815260200190815260200160002060008282546108b89190610bd4565b909155505033600090815260056020526040812080548592906108dc908490610be7565b9250508190555082600660008282546108f59190610be7565b909155505060405183815233907fe11731cb4f1eb3ec3dd09bdc96809bb07365f4c881cda3192b397a4bc0b6da409060200160405180910390a2505050565b60006005600061094c6000546001600160a01b031690565b6001600160a01b03166001600160a01b0316815260200190815260200160002054905090565b61097a610a55565b6109846000610a82565b565b61098e610a55565b6004805460ff191660019081179091556040519081527fe333f8a36ee86e754548af2d6f50c73ff0d501e22e6c784662123dbbe493c602906020015b60405180910390a1565b6109dc610a55565b6004805460ff19169055604051600081527fe333f8a36ee86e754548af2d6f50c73ff0d501e22e6c784662123dbbe493c602906020016109ca565b610a1f610a55565b6001600160a01b038116610a4957604051631e4fbdf760e01b8152600060048201526024016102e0565b610a5281610a82565b50565b6000546001600160a01b031633146109845760405163118cdaa760e01b81523360048201526024016102e0565b600080546001600160a01b038381166001600160a01b0319831681178455604051919092169283917f8be0079c531659141344cd1fd0a4f28419497f9722a3daafe3b4186f6b6457e09190a35050565b80356001600160a01b0381168114610ae957600080fd5b919050565b60008060408385031215610b0157600080fd5b610b0a83610ad2565b946020939093013593505050565b600060208083528351808285015260005b81811015610b4557858101830151858201604001528201610b29565b506000604082860101526040601f19601f8301168501019250505092915050565b600060208284031215610b7857600080fd5b5035919050565b600060208284031215610b9157600080fd5b610b9a82610ad2565b9392505050565b634e487b7160e01b600052601160045260246000fd5b8082028115828204841417610bce57610bce610ba1565b92915050565b81810381811115610bce57610bce610ba1565b80820180821115610bce57610bce610ba1565b600181811c90821680610c0e57607f821691505b602082108103610c2e57634e487b7160e01b600052602260045260246000fd5b5091905056fea2646970667358221220a26c81da3ecf34a2c5bd0c8ef93b5531304d3c40feb151283e255e9aeb8d3d8764736f6c63430008140033",
  "linkReferences": {},
  "deployedLinkReferences": {}
}